:100000000C9460000C94BC050C94E3050C948800DF
:100010000C9488000C9488000C9488000C945F0564
:100020000C9488000C9488000C9488000C94880030
:100030000C9488000C9488000C9488000C94880020
:100040000C940A060C9488000C9476030C94AE036E
:100050000C9488000C9488000C9488000C94880000
:100060000C9488000C948800020000000800020133
:10007000000003040700000000000000000102046B
:10008000081020408001020408102001020408101A
:100090002004040404040404040202020202020311
:1000A00003030303030000000023002600290000CF
:1000B000000000250028002B00004E02DE034D0446
:1000C00011241FBECFEFD8E0DEBFCDBF11E0A0E00E
:1000D000B1E0E4EDFEE002C005900D92AC31B10755
:1000E000D9F722E0ACE1B1E001C01D92A734B2071C
:1000F000E1F710E0C0E6D0E004C02197FE010E94C5
:100100006207CD35D107C9F70E9459040C946807DE
:100110000C9400008EE00E949B06092E000CAA0B96
:10012000BB0B80931C0190931D01A0931E01B09303
:100130001F0181E00E941707E0E2F1E0908180FB5F
:1001400090F99083E4E2F1E08081826080830895F9
:100150000895FC0180818E7F808380818D7F8083E4
:1001600011861286138614861582168217821086CF
:10017000118212821382148210A2178E12A211A26F
:1001800014A213A2158A168A178A108E08950F9347
:100190001F93CF93DF93DC019396ED91FC9194979D
:1001A0003097E1F1EC011D8A1E8A1F8A188E8B8D13
:1001B0009C8D892B79F1888181FD2CC015C00E940E
:1001C000540609811A812B813C810D831E832F8364
:1001D0003887DC01CB01801B910BA20BB30B898705
:1001E0009A87AB87BC871AC004811581B583A48325
:1001F000888182608883EB8DFC8D0995988180FBD6
:1002000090F9988388818D7F8883EBA1FCA1158369
:100210000483D5CF888181608883D1CFDF91CF914E
:100220001F910F910895CF93DF93EC014115510574
:100230006105710521F449815A816B817C814D836F
:100240005E836F8378870E94540669877A878B87DD
:100250009C87DF91CF910895FC0141835283638392
:10026000748340E050E0BA010E9413010895EF92B8
:10027000FF921F93CF93DF93FC01908180818E7F4B
:10028000808380818D7F8083192F117090FF13C030
:10029000858D968D892B79F0EF0103A0F4A1E02DD7
:1002A000E480F580D583C483ED8DFE8D0995EBA1A7
:1002B000FCA1F582E482812FDF91CF911F91FF9005
:1002C000EF900895CF93DF93DC01FB0194A383A308
:1002D0008D919C911197892B31F411967C936E939B
:1002E00010A2178E0CC012968D919C91139790A31B
:1002F000878F1296CD91DC9113977AA369A312A2EE
:1003000011A21396FC93EE931297DF91CF9108956B
:100310004F925F926F927F928F929F92AF92BF9215
:10032000CF92DF92EF92FF920F931F93CF93DF93C1
:10033000EC01E881F981FD83EC83309709F47AC000
:1003400011E000E0908190FF6AC045855685678581
:100350007089452B462B472B21F4CF010E94370192
:100360005EC00E945406EC81FD8141805280638012
:10037000748081849284A384B484C580D680E7800D
:10038000F084DC01CB0188199909AA09BB098C15F5
:100390009D05AE05BF0508F442C085859685A785F5
:1003A000B089181619061A061B065CF48585968511
:1003B000A785B0890197A109B10985879687A78785
:1003C000B08BEC81FD8185899689A789B08D0196D6
:1003D000A11DB11D858B968BA78BB08FEC81FD8104
:1003E00085819681A781B085418552856385748515
:1003F000840F951FA61FB71F81879287A387B48795
:10040000EC81FD814582568267827086EC81FD8198
:10041000018CF28DE02D309711F00995102FEC81B1
:10042000FD8101A0F2A1E02DFD83EC83309709F05E
:1004300089CF01C011E0812FDF91CF911F910F91E2
:10044000FF90EF90DF90CF90BF90AF909F908F90F4
:100450007F906F905F904F900895E4E4F1E01182F7
:10046000108213821282158214826FE671E0CF012E
:100470000E9462016AE471E084E491E00E946201FA
:100480008FE691E00E94C7008AE491E00E94C700D5
:10049000089584E491E00E9488010895CF92DF924C
:1004A000EF92FF928FE691E00E94A90044EF51E0A5
:1004B00060E070E08FE691E00E942C01EFE6F1E051
:1004C000CC24CA94DC2C7601C586D686E786F08AD1
:1004D000C18AD28AE38AF48A8AE890E0928F818F77
:1004E000148E138E168E158E8AE491E00E94A90058
:1004F00044E650E060E070E08AE491E00E942C0164
:10050000EAE4F1E0C586D686E786F08AC18AD28A17
:10051000E38AF48A88EA90E0928F818F148E138E9A
:10052000168E158EE4E4F1E011821082138212829D
:1005300015821482FF90EF90DF90CF900895FC0118
:10054000918D228D892F90E0805C9F4F821B9109B5
:100550008F7399270895FC01918D828D981731F042
:10056000828DE80FF11D858D90E008958FEF9FEF4C
:100570000895FC01918D828D981761F0828DDF01C5
:10058000A80FB11D5D968C91928D9F5F9F73928F86
:1005900090E008958FEF9FEF089584ED93E0892B0D
:1005A00049F080E090E0892B29F00E94D40381116A
:1005B0000E9400000895FC01848DDF01A80FB11D89
:1005C000A35ABF4F8C91248D30E02F5F3F4F2F7384
:1005D0003078332334F421503109206C3F6F2F5F82
:1005E0003F4F248FA689B7898C93A089B1898C91BC
:1005F00080648C93938D848D981306C00288F38950
:10060000E02D80818F7D80830895CF93DF93EC016F
:10061000888D81110FC018C00FB607FC0DC09081E6
:1006200095FF0AC0A889B9898C9185FF05C0CE01C4
:100630000E94DB02EA89FB89908195FDEDCFA889B4
:10064000B9898C9186FFE8CFDF91CF9108950F9300
:100650001F93CF93DF93FC0181E0808F938D848D76
:10066000981322C0A089B1898C9185FD2FC01CC030
:100670000FB607FC08C0E889F989808185FF03C0AF
:10068000CE010E94DB029C8D091791F38B8DFE0138
:10069000E80FF11DE35AFF4F10830B8FEA89FB89A6
:1006A0008081806280831BC0238D30E02F5F3F4FAD
:1006B0002F733078332334F421503109206C3F6F8D
:1006C0002F5F3F4F162FEF01022FDDCFA689B7898D
:1006D0006C930088F189E02D80818064808381E0C3
:1006E00090E0DF91CF911F910F9108951F920F928B
:1006F0000FB60F9211242F938F939F93AF93BF93B5
:10070000EF93FF93E091A401F091A501808182FD18
:1007100014C0E4E9F1E0A689B7892C91818D8F5F3F
:100720008F73928D891771F0DF01E18DF0E0EC5647
:10073000FE4F258F59968C9305C0E091AA01F09148
:10074000AB018081FF91EF91BF91AF919F918F910C
:100750002F910F900FBE0F901F9018951F920F9220
:100760000FB60F9211242F933F934F935F936F9384
:100770007F938F939F93AF93BF93EF93FF9384E9FE
:1007800091E00E94DB02FF91EF91BF91AF919F91A9
:100790008F917F916F915F914F913F912F910F902A
:1007A0000FBE0F901F90189584E991E00E949F0260
:1007B00021E0892B09F420E0822F0895E4E9F1E09B
:1007C0001382128288EE93E0A0E0B0E084839583E8
:1007D000A683B7838AE091E09183808385EC90E0E3
:1007E0009587848784EC90E09787868780EC90E0FB
:1007F000918B808B81EC90E0938B828B82EC90E0EC
:10080000958B848B86EC90E0978B868B118E128E65
:10081000138E148E08958F929F92AF92BF92CF92B3
:10082000DF92EF92FF920F931F93CF93DF935C01C0
:100830007B014C0182E0880E911C6501E5E0CE0E43
:10084000D11C00E010E0F40161914F014AE050E05A
:10085000C7010E942105EC016EE2C7010E949704C6
:100860008C0F9D1F080F191F8C149D0461F74AE01F
:1008700050E0F5016581C7010E942105800F911F9D
:10088000DF91CF911F910F91FF90EF90DF90CF906C
:10089000BF90AF909F908F900895E1E3F2E08AE1DE
:1008A00091E09183808312821382148215820895CD
:1008B00008950E9460060E9458040E942D02CDEC0B
:1008C000D2E00E9449022097E1F30E94CD02F9CFC5
:1008D000CF92DF92EF92FF920F931F93CF93DF930C
:1008E00041155105C1F06A018C01E62EF72EC0E0DA
:1008F000D0E0D7016D917D01D801ED91FC9101907F
:10090000F081E02DC8010995892B39F02196CC168C
:10091000DD0679F702C0C0E0D0E0CE01DF91CF91D3
:100920001F910F91FF90EF90DF90CF900895DC0121
:10093000ED91FC910190F081E02D099508954F9281
:100940005F926F927F929F92AF92BF92CF92DF920F
:10095000EF92FF920F931F93CF93DF93CDB7DEB744
:10096000A1970FB6F894DEBF0FBECDBF5C016A0140
:100970007B01922E19A281E0821720F00F2EFAE05F
:100980009F2EF02D8E010F5D1F4F492C512C612C95
:10099000712CC701B601A30192010E9440078C2D62
:1009A000929E80191124015011098A3010F4805D43
:1009B00001C0895CD8018C93C22ED32EE42EF52E73
:1009C000C114D104E104F10421F70115110591F0DE
:1009D000F80101900020E9F73197AF01401B510B5E
:1009E000D501ED91FC910280F381E02DB801C501A4
:1009F000099502C080E090E0A1960FB6F894DEBFA2
:100A00000FBECDBFDF91CF911F910F91FF90EF905F
:100A1000DF90CF90BF90AF909F907F906F905F904E
:100A20004F9008952115310549F4DC01ED91FC91B9
:100A30000190F081E02D642F099508950E949F0494
:100A400008959A01462F50E060E070E00E94120580
:100A50000895813039F018F0823051F008951092E5
:100A60006E000895EFE6F0E080818D7F8083089529
:100A7000E0E7F0E080818D7F808381E08093B000AB
:100A8000E1EBF0E08081887F846080831092B30086
:100A90000895CF93C82F809100018C1307C0E8E61A
:100AA000F0E084919FEF9093000101C08FEF0E94CE
:100AB000290560E08C2F0E94E606CF9108951F92D1
:100AC0000F920FB60F9211242F933F934F935F9382
:100AD0006F937F938F939F93AF93BF93EF93FF9306
:100AE00080913A0290913B02A0913C02B0913D026C
:100AF000892B8A2B8B2B51F180913702E0913802A0
:100B0000F091390290818927808380913A029091F7
:100B10003B02A0913C02B0913D02181619061A063C
:100B20001B06C4F480913A0290913B02A0913C02D2
:100B3000B0913D020197A109B10980933A029093C7
:100B40003B02A0933C02B0933D0204C0809100019F
:100B50000E944905FF91EF91BF91AF919F918F91B5
:100B60007F916F915F914F913F912F910F900FBEA9
:100B70000F901F90189508951F920F920FB60F9225
:100B800011242F933F934F935F936F937F938F9392
:100B90009F93AF93BF93EF93FF93E0910101F09187
:100BA00002010995FF91EF91BF91AF919F918F91B4
:100BB0007F916F915F914F913F912F910F900FBE59
:100BC0000F901F9018951F920F920FB60F9211243D
:100BD0002F933F934F935F936F937F938F939F9345
:100BE000AF93BF93EF93FF93E0910301F091040162
:100BF0000995FF91EF91BF91AF919F918F917F9157
:100C00006F915F914F913F912F910F900FBE0F9079
:100C10001F9018951F920F920FB60F9211242F93C9
:100C20003F938F939F93AF93BF9380913F02909197
:100C30004002A0914102B091420230913E0223E075
:100C4000230F2D3720F40196A11DB11D05C026E804
:100C5000230F0296A11DB11D20933E0280933F02F7
:100C600090934002A0934102B093420280914302CC
:100C700090914402A0914502B09146020196A11DB7
:100C8000B11D8093430290934402A0934502B09318
:100C90004602BF91AF919F918F913F912F910F90FD
:100CA0000FBE0F901F9018952FB7F89460913F02D8
:100CB0007091400280914102909142022FBF0895AD
:100CC000789484B5826084BD84B5816084BD85B527
:100CD000826085BD85B5816085BDEEE6F0E08081EE
:100CE00081608083E1E8F0E010828081826080830F
:100CF000808181608083E0E8F0E080818160808392
:100D0000E1EBF0E0808184608083E0EBF0E08081C3
:100D100081608083EAE7F0E0808184608083808165
:100D2000826080838081816080838081806880830D
:100D30001092C10008958E3008F08E508770909107
:100D4000050140E4949F90011124282B20937C00FE
:100D5000EAE7F0E0808180648083808186FDFDCFBA
:100D6000809178002091790090E0922B0895833053
:100D700069F028F48130B1F08230C1F008958730F5
:100D8000C9F08830E9F0843001F506C0E0E8F0E011
:100D900080818F7780830895E0E8F0E080818F7D07
:100DA0008083089584B58F7784BD089584B58F7D41
:100DB00084BD0895E0EBF0E080818F778083089513
:100DC000E0EBF0E080818F7D808308951F93CF93C7
:100DD000DF93282F30E0F901E759FF4F8491F901A3
:100DE000E358FF4F1491F901EF56FF4FC491CC2304
:100DF000D1F0D62F81110E94B706EC2FF0E0EE0F54
:100E0000FF1FE155FF4FA591B4918FB7F894D11111
:100E100006C09C91E12FE095E923EC9303C0EC918F
:100E2000E12BEC938FBFDF91CF911F910895CF936A
:100E3000DF93282F30E0F901E759FF4F8491F90142
:100E4000E358FF4FD491F901EF56FF4FC491CC23E3
:100E500091F081110E94B706EC2FF0E0EE0FFF1F1A
:100E6000EB55FF4FA591B491EC91ED2381E090E01B
:100E700021F480E002C080E090E0DF91CF910895FE
:100E8000A1E21A2EAA1BBB1BFD010DC0AA1FBB1F8E
:100E9000EE1FFF1FA217B307E407F50720F0A21B00
:100EA000B30BE40BF50B661F771F881F991F1A946D
:100EB00069F760957095809590959B01AC01BD0197
:100EC000CF010895EE0FFF1F0590F491E02D0994D6
:040ED000F894FFCFC4
:100ED400FFBB05BB050100000000270368049F0257
:0C0EE400B902AB020503000000000B0483
:00000001FF
