:100000000C9460000C9496050C94BD050C9488002B
:100010000C9488000C9488000C9488000C9439058A
:100020000C9488000C9488000C9488000C94880030
:100030000C9488000C9488000C9488000C94880020
:100040000C94E4050C9488000C9466030C949803BB
:100050000C9488000C9488000C9488000C94880000
:100060000C9488000C948800020000000800020133
:10007000000003040700000000000000000102046B
:10008000081020408001020408102001020408101A
:100090002004040404040404040202020202020311
:1000A00003030303030000000023002600290000CF
:1000B000000000250028002B00004F02C803370471
:1000C00011241FBECFEFD8E0DEBFCDBF11E0A0E00E
:1000D000B1E0ECE7FEE002C005900D92AC31B10753
:1000E000D9F723E0ACE1B1E001C01D92A738B20717
:1000F000E1F710E0C0E6D0E004C02197FE010E94C5
:100100003607CD35D107C9F70E9443040C943C074C
:100110000C9400008EE00E947506092E000CAA0BBC
:10012000BB0B80931C0190931D01A0931E01B09303
:100130001F0181E00E94EB06E8E2F1E0908180FB84
:1001400090F99083E4E3F1E08081826080830895F8
:100150000895FC0180818E7F808380818D7F8083E4
:1001600011861286138614861582168217821086CF
:10017000118212821382148210A2178E12A211A26F
:1001800014A213A2158A168A178A108E08950F9347
:100190001F93CF93DF93FC01A3A1B4A11097E9F1C2
:1001A000EC01158A168A178A108E038CF48DE02DC7
:1001B000309779F1888181FD2CC014960D911C91A6
:1001C00015971596DC93CE93149788818260888367
:1001D0000995988180FB90F9988388818D7F888329
:1001E000EBA1FCA1158304830E942E0609811A81CC
:1001F0002B813C810D831E832F833887DC01CB014B
:10020000801B910BA20BB30B89879A87AB87BC87A6
:1002100004C0888181608883E7CFDF91CF911F91EF
:100220000F910895CF93DF93EC01411551056105BE
:10023000710521F449815A816B817C814D835E83F4
:100240006F8378870E942E0669877A878B879C87C1
:10025000DF91CF910895FC014183528363837483BE
:1002600040E050E0BA010C941201EF92FF920F931C
:100270001F93CF93DF931F92CDB7DEB7DC019C9124
:100280008C918E7F8C938C918D7F8C93892F817034
:1002900090FF1FC05D962D913C915E972115310511
:1002A000C1F07D0193960D90BC91A02D14960D91F7
:1002B0001C9115971596FC92EE9214978983F9017B
:1002C0000995D7019396ED91FC919497158304833A
:1002D00089810F90DF91CF911F910F91FF90EF9047
:1002E0000895CF93DF93DC01FB0194A383A38D9149
:1002F0009C911197892B31F411967C936E9310A2E7
:10030000178E08C01296CD91DC911397D0A3C78F9A
:100310007AA369A312A211A21396FC93EE931297EB
:10032000DF91CF9108954F925F926F927F928F925B
:100330009F92AF92BF92CF92DF92EF92FF921F9364
:10034000CF93DF93EC01888199819D838C8311E0A9
:10035000EC81FD81309709F46BC0808180FF61C022
:1003600085859685A785B089892B8A2B8B2B21F4CF
:10037000CF010E94350155C00E942E06EC81FD81FF
:10038000C180D280E380F480418452846384748489
:1003900085809680A780B084DC01CB018419950903
:1003A000A609B70988159905AA05BB05D0F1858569
:1003B0009685A785B089181619061A061B065CF4DF
:1003C00085859685A785B0890197A109B10985879B
:1003D0009687A787B08B85899689A789B08D019666
:1003E000A11DB11D858B968BA78BB08F4581568142
:1003F0006781708581859285A385B485480F591FD3
:100400006A1F7B1F4187528763877487C582D682A4
:10041000E782F086018CF28DE02D309711F009957E
:1004200010E0EC81FD8181A192A19D838C8390CF0E
:10043000812FDF91CF911F91FF90EF90DF90CF90B0
:10044000BF90AF909F908F907F906F905F904F90F4
:100450000895A4E8B2E015961C921E921497EFEA54
:10046000F2E0B4A3A3A31196FC93EE9310A2178E0F
:1004700012A211A21396FC93EE9312976AE872E00F
:10048000CD010E9471018FEA92E00E94C7008AE8C4
:1004900092E00C94C70084E892E00C949301CF9210
:1004A000DF92EF92FF928FEA92E00E94A90044EF60
:1004B00051E060E070E08FEA92E00E942B01EFEAE9
:1004C000F2E0CC24CA94DC2C7601C586D686E78679
:1004D000F08AC18AD28AE38AF48A8AE890E0928F0D
:1004E000818F148E138E168E158E8AE892E00E94EC
:1004F000A90044E650E060E070E08AE892E00E94E3
:100500002B01EAE8F2E0C586D686E786F08AC18A42
:10051000D28AE38AF48A88EA90E0928F818F148EDF
:10052000138E168E158EE4E8F2E01182108213828B
:10053000128215821482FF90EF90DF90CF90089581
:10054000FC01918D228D892F90E0805C9F4F821B52
:1005500091098F7399270895FC01918D828D9817C9
:1005600031F0828DE80FF11D858D90E008958FEFB9
:100570009FEF0895FC01918D828D981761F0828D17
:10058000DF01A80FB11D5D968C91928D9F5F9F73C7
:10059000928F90E008958FEF9FEF08958EEB93E098
:1005A000892B49F080E090E0892B29F00E94BE035E
:1005B00081110C9400000895FC01848DDF01A80FC7
:1005C000B11DA35ABF4F2C91848D90E001968F737B
:1005D0009927848FA689B7892C93A089B1898C919A
:1005E00080648C93938D848D981306C00288F38960
:1005F000E02D80818F7D80830895CF93DF93EC0180
:10060000888D8823C9F0EA89FB89808185FD05C032
:10061000A889B9898C9186FD0FC00FB607FCF5CF6C
:10062000808185FFF2CFA889B9898C9185FFEDCFB4
:10063000CE010E94DC02E7CFDF91CF910895EF92C7
:10064000FF920F931F93CF93DF93EC0181E0888F8C
:100650009B8D8C8D981305C0E889F989808185FD73
:1006600024C0F62E0B8D10E00F5F1F4F0F73112764
:10067000E02E8C8DE8120CC00FB607FCFACFE8898B
:10068000F989808185FFF5CFCE010E94DC02F1CF90
:100690008B8DFE01E80FF11DE35AFF4FF0820B8FA7
:1006A000EA89FB898081806207C0EE89FF896083C7
:1006B000E889F98980818064808381E090E0DF911E
:1006C000CF911F910F91FF90EF9008951F920F927D
:1006D0000FB60F9211242F938F939F93EF93FF9355
:1006E000E091E402F091E5028081E091EA02F0916C
:1006F000EB0282FD12C090818091ED028F5F8F73BB
:100700002091EE02821751F0E091ED02F0E0EC5200
:10071000FD4F958F8093ED0201C08081FF91EF9195
:100720009F918F912F910F900FBE0F901F90189552
:100730001F920F920FB60F9211242F933F934F9356
:100740005F936F937F938F939F93AF93BF93EF9339
:10075000FF9384ED92E00E94DC02FF91EF91BF9144
:10076000AF919F918F917F916F915F914F913F9149
:100770002F910F900FBE0F901F90189584ED92E06F
:100780000E94A00221E0892B09F420E0822F089525
:10079000E4EDF2E01382128288EE93E0A0E0B0E094
:1007A00084839583A683B7838AE091E091838083D5
:1007B00085EC90E09587848784EC90E09787868726
:1007C00080EC90E0918B808B81EC90E0938B828B1E
:1007D00082EC90E0958B848B86EC90E0978B868BF7
:1007E000118E128E138E148E08958F929F92AF9257
:1007F000BF92CF92DF92EF92FF920F931F93CF930E
:10080000DF937C018B016C0182E0C80ED11C470193
:10081000E5E08E0E911CC0E0D0E0F60161916F0121
:100820004AE050E0C8010E94FC045C016EE2C8018D
:100830000E9492048A0D9B1DC80FD91FC814D904A9
:1008400061F74AE050E0F7016581C8010E94FC04AD
:100850008C0F9D1FDF91CF911F910F91FF90EF9013
:10086000DF90CF90BF90AF909F908F900895E1E779
:10087000F3E08AE191E091838083128213821482F3
:100880001582089508950E943A060E9442040E942B
:100890002902CEECD2E00E944B022097E1F30E94A5
:1008A000CE02F9CFCF92DF92EF92FF920F931F9378
:1008B000CF93DF936C017A018B01C0E0D0E0CE15BD
:1008C000DF0589F0D8016D918D01D601ED91FC9184
:1008D0000190F081E02DC6010995892B11F47E016C
:1008E00002C02196ECCFC701DF91CF911F910F91EC
:1008F000FF90EF90DF90CF9008956115710579F02A
:10090000FB0101900020E9F73197AF01461B570B1F
:10091000DC01ED91FC910280F381E02D099480E0EF
:1009200090E00895DC01ED91FC910190F081E02DC3
:1009300009948F929F92AF92BF92CF92DF92EF92E3
:10094000FF920F931F93CF93DF93CDB7DEB7A1979D
:100950000FB6F894DEBF0FBECDBF6C01142FE52F8C
:10096000CB01022F19A2223008F40AE07E0121E215
:10097000E20EF11C802E912CA12CB12C612F7E2F28
:10098000A50194010E941407029F1019112481E00F
:10099000E81AF1081A3010F4105D01C0195CF70173
:1009A0001083122FE32FCA01232B242B252B31F781
:1009B000B701C6010E947D04A1960FB6F894DEBF70
:1009C0000FBECDBFDF91CF911F910F91FF90EF90A0
:1009D000DF90CF90BF90AF909F908F90089521159A
:1009E000310541F4DC01ED91FC910190F081E02DA5
:1009F000642F09940C9499049A01462F50E060E00A
:100A000070E00C94EF04813039F018F0823051F02E
:100A1000089510926E00089580916F008D7F8093ED
:100A20006F000895809170008D7F8093700081E049
:100A30008093B0008091B100887F84608093B10082
:100A40001092B3000895CF93C82F809100018C13AA
:100A500007C0E8E6F0E0E4918FEF8093000101C069
:100A6000EFEF8E2F0E94030560E08C2FCF910C9446
:100A7000BB061F920F920FB60F9211242F933F9334
:100A80004F935F936F937F938F939F93AF93BF9396
:100A9000EF93FF9380917A0390917B03A0917C0365
:100AA000B0917D03892B8A2B8B2B51F18091770399
:100AB000E0917803F0917903908189278083809178
:100AC0007A0390917B03A0917C03B0917D0318166B
:100AD00019061A061B06C4F480917A0390917B03D1
:100AE000A0917C03B0917D030197A109B109809386
:100AF0007A0390937B03A0937C03B0937D0304C09F
:100B0000809100010E942305FF91EF91BF91AF9169
:100B10009F918F917F916F915F914F913F912F9115
:100B20000F900FBE0F901F90189508951F920F926F
:100B30000FB60F9211242F933F934F935F936F93B0
:100B40007F938F939F93AF93BF93EF93FF93E09126
:100B50000101F09102010995FF91EF91BF91AF91D1
:100B60009F918F917F916F915F914F913F912F91C5
:100B70000F900FBE0F901F9018951F920F920FB6F7
:100B80000F9211242F933F934F935F936F937F9313
:100B90008F939F93AF93BF93EF93FF93E0910301E4
:100BA000F09104010995FF91EF91BF91AF919F9151
:100BB0008F917F916F915F914F913F912F910F9006
:100BC0000FBE0F901F9018951F920F920FB60F92A5
:100BD00011242F933F938F939F93AF93BF93809153
:100BE0007F0390918003A0918103B09182033091A3
:100BF0007E0323E0230F2D3720F40196A11DB11DA4
:100C000005C026E8230F0296A11DB11D20937E0387
:100C100080937F0390938003A0938103B09382031A
:100C20008091830390918403A0918503B091860302
:100C30000196A11DB11D8093830390938403A0931B
:100C40008503B0938603BF91AF919F918F913F91A0
:100C50002F910F900FBE0F901F9018952FB7F894FB
:100C600060917F0370918003809181039091820352
:100C70002FBF0895789484B5826084BD84B5816067
:100C800084BD85B5826085BD85B5816085BDEEE694
:100C9000F0E0808181608083E1E8F0E01082808173
:100CA00082608083808181608083E0E8F0E08081E1
:100CB00081608083E1EBF0E0808184608083E0EB01
:100CC000F0E0808181608083EAE7F0E080818460E9
:100CD0008083808182608083808181608083808145
:100CE000806880831092C10008958E3008F08E5085
:100CF00087702091050190E4299F90011124822B97
:100D000080937C0080917A00806480937A00809147
:100D10007A0086FDFCCF809178002091790090E0E8
:100D2000922B0895833081F028F4813099F082303D
:100D3000A1F008958730A9F08830B9F08430D1F45B
:100D4000809180008F7D03C0809180008F77809399
:100D50008000089584B58F7702C084B58F7D84BDEF
:100D600008958091B0008F7703C08091B0008F7D8F
:100D70008093B00008951F93CF93DF93282F30E026
:100D8000F901E759FF4F8491F901E358FF4FD491DE
:100D9000F901EF56FF4FC491CC23C9F0162F8111F2
:100DA0000E949206EC2FF0E0EE0FFF1FE155FF4F7F
:100DB000A591B4918FB7F894111105C09C91ED2FB6
:100DC000E095E92302C0EC91ED2BEC938FBFDF910E
:100DD000CF911F910895CF93DF93282F30E0F90131
:100DE000E759FF4F8491F901E358FF4FD491F9017E
:100DF000EF56FF4FC491CC2391F081110E949206CF
:100E0000EC2FF0E0EE0FFF1FEB55FF4FA591B491D3
:100E1000EC91ED2381E090E021F480E002C080E0DD
:100E200090E0DF91CF910895A1E21A2EAA1BBB1B7F
:100E3000FD010DC0AA1FBB1FEE1FFF1FA217B307A6
:100E4000E407F50720F0A21BB30BE40BF50B661FBC
:100E5000771F881F991F1A9469F760957095809580
:100E600090959B01AC01BD01CF010895EE0FFF1FCE
:0C0E70000590F491E02D0994F894FFCF58
:100E7C00FF9505950501000000001F035204A00218
:0C0E8C00BA02AC02FD0200000000F503F9
:00000001FF
