:100000000C9460000C9462060C9489060C94880091
:100010000C9488000C9488000C9488000C940506BD
:100020000C9488000C9488000C9488000C94880030
:100030000C9488000C9488000C9488000C94880020
:100040000C94B0060C9488000C9432040C94640454
:100050000C9488000C9488000C9488000C94880000
:100060000C9488000C948800020000000800020133
:10007000000003040700000000000000000102046B
:10008000081020408001020408102001020408101A
:100090002004040404040404040202020202020311
:1000A00003030303030000000023002600290000CF
:1000B000000000250028002B0000DF029404030547
:1000C00011241FBECFEFD8E0DEBFCDBF11E0A0E00E
:1000D000B1E0E0E4F0E102C005900D92AC31B1076F
:1000E000D9F723E0ACE1B1E001C01D92A13DB20718
:1000F000E1F710E0C0E6D0E004C02197FE010E94C5
:100100000208CD35D107C9F70E940F050C941E08CF
:100110000C9400008EE00E944107092E000CAA0BEF
:10012000BB0B80931C0190931D01A0931E01B09303
:100130001F0181E00E94B707E8E2F1E0908180FBB7
:1001400090F99083E4E3F1E08081826080830895F8
:10015000089580E2E82E82E0F82EC4E5D0E094E134
:10016000C92ED12C412C512C320143943CE0B32EAA
:100170008FEFC81AD80AF7014082518262827382D7
:10018000CE010E940808BC9C8001BD9C100D11246A
:10019000045E1E4FF8018083CE0101960E9408087C
:1001A000F8018183CE0102960E940808F80182833B
:1001B000CE0103960E940808F8018383FCE0EF0E4D
:1001C000F11C2496D5CF88E1E82E82E0F82EC4E514
:1001D000D0E094E1C92ED12C2CE0B22E8FEFC81ABA
:1001E000D80AF701448155816681778180819181A8
:1001F000A281B381481759076A077B07F1F0BC9CBD
:100200008001BD9C100D1124045E1E4FF801608119
:10021000CE010E941008F8016181CE0101960E9472
:100220001008F8016281CE0102960E941008F801C0
:100230006381CE0103960E941008FCE0EF0EF11CD2
:100240002496CCCF0895FC0180818E7F80838081AD
:100250008D7F8083118612861386148615821682FE
:1002600017821086118212821382148210A2178EB6
:1002700012A211A214A213A2158A168A178A108E2E
:1002800008950F931F93CF93DF93FC01A3A1B4A113
:100290001097E9F1EC01158A168A178A108E038CE3
:1002A000F48DE02D309779F1888181FD2CC0149672
:1002B0000D911C9115971596DC93CE931497888118
:1002C000826088830995988180FB90F99883888162
:1002D0008D7F8883EBA1FCA1158304830E94FA061D
:1002E00009811A812B813C810D831E832F833887DE
:1002F000DC01CB01801B910BA20BB30B89879A8782
:10030000AB87BC8704C0888181608883E7CFDF9199
:10031000CF911F910F910895CF93DF93EC01411579
:1003200051056105710521F449815A816B817C81F8
:100330004D835E836F8378870E94FA0669877A8788
:100340008B879C87DF91CF910895FC014183528375
:100350006383748340E050E0BA010C948C01EF9207
:10036000FF920F931F93CF93DF931F92CDB7DEB70A
:10037000DC019C918C918E7F8C938C918D7F8C93E2
:10038000892F817090FF1FC05D962D913C915E97E3
:1003900021153105C1F07D0193960D90BC91A02DE2
:1003A00014960D911C9115971596FC92EE92149748
:1003B0008983F9010995D7019396ED91FC91949762
:1003C0001583048389810F90DF91CF911F910F9145
:1003D000FF90EF900895CF93DF93DC01FB0194A38E
:1003E00083A38D919C911197892B31F411967C9365
:1003F0006E9310A2178E08C01296CD91DC911397C0
:10040000D0A3C78F7AA369A312A211A21396FC935B
:10041000EE931297DF91CF9108954F925F926F9272
:100420007F928F929F92AF92BF92CF92DF92EF9284
:10043000FF921F93CF93DF93EC01888199819D8375
:100440008C8311E0EC81FD81309709F46BC08081D1
:1004500080FF61C085859685A785B089892B8A2B09
:100460008B2B21F4CF010E94AF0155C00E94FA06E8
:10047000EC81FD81C180D280E380F480418452848C
:100480006384748485809680A780B084DC01CB016E
:1004900084199509A609B70988159905AA05BB0508
:1004A000D0F185859685A785B089181619061A0694
:1004B0001B065CF485859685A785B0890197A109FF
:1004C000B10985879687A787B08B85899689A78983
:1004D000B08D0196A11DB11D858B968BA78BB08F1A
:1004E000458156816781708581859285A385B48514
:1004F000480F591F6A1F7B1F418752876387748784
:10050000C582D682E782F086018CF28DE02D30978D
:1005100011F0099510E0EC81FD8181A192A19D83EC
:100520008C8390CF812FDF91CF911F91FF90EF901F
:10053000DF90CF90BF90AF909F908F907F906F9003
:100540005F904F9008950E94A900A4E8B2E015962C
:100550001C921E921497E9EFF2E0B4A3A3A31196A4
:10056000FC93EE9310A2178E12A211A21396FC9385
:10057000EE93129764ED72E0CD010E94EB016FEAF9
:1005800072E084E892E00E94EB016AE872E084E89D
:1005900092E00E94EB0189EF92E00E94410184ED1C
:1005A00092E00E9441018FEA92E00E9441018AE8B4
:1005B00092E00C94410184E892E00C940D02CF92F9
:1005C000DF92EF92FF9289EF92E00E94230144E6CE
:1005D00050E060E070E089EF92E00E94A501E9EF51
:1005E000F2E0CC24CA94DC2C7601C586D686E78658
:1005F000F08AC18AD28AE38AF48A8AE890E0928FEC
:10060000818F148E138E168E158E84ED92E00E94CB
:10061000230144E650E060E070E084ED92E00E9447
:10062000A501E4EDF2E0C586D686E786F08AC18AA8
:10063000D28AE38AF48A88EA90E0928F818F148EBE
:10064000138E168E158E8FEA92E00E94230148EEDB
:1006500053E060E070E08FEA92E00E94A501EFEACB
:10066000F2E0C586D686E786F08AC18AD28AE38A16
:10067000F48A83EE90E0928F818F148E138E168E03
:10068000158E8AE892E00E94230145E050E060E088
:1006900070E08AE892E00E94A501EAE8F2E0C586EF
:1006A000D686E786F08AC18AD28AE38AF48A82E211
:1006B00091E0928F818F148E138E168E158EE4E842
:1006C000F2E0118210821382128215821482FF904E
:1006D000EF90DF90CF900895FC01918D228D892FAE
:1006E00090E0805C9F4F821B91098F73992708953A
:1006F000FC01918D828D981731F0828DE80FF11DEC
:10070000858D90E008958FEF9FEF0895FC01918D06
:10071000828D981761F0828DDF01A80FB11D5D9663
:100720008C91928D9F5F9F73928F90E008958FEFD1
:100730009FEF08958AE894E0892B49F080E090E0EB
:10074000892B29F00E948A0481110C9400000895DD
:10075000FC01848DDF01A80FB11DA35ABF4F2C915E
:10076000848D90E001968F739927848FA689B7892D
:100770002C93A089B1898C9180648C93938D848D06
:10078000981306C00288F389E02D80818F7D8083D5
:100790000895CF93DF93EC01888D8823C9F0EA890F
:1007A000FB89808185FD05C0A889B9898C9186FD6A
:1007B0000FC00FB607FCF5CF808185FFF2CFA88967
:1007C000B9898C9185FFEDCFCE010E94A803E7CFB8
:1007D000DF91CF910895EF92FF920F931F93CF93E4
:1007E000DF93EC0181E0888F9B8D8C8D981305C081
:1007F000E889F989808185FD24C0F62E0B8D10E0F3
:100800000F5F1F4F0F731127E02E8C8DE8120CC065
:100810000FB607FCFACFE889F989808185FFF5CF0B
:10082000CE010E94A803F1CF8B8DFE01E80FF11DD0
:10083000E35AFF4FF0820B8FEA89FB898081806247
:1008400007C0EE89FF896083E889F9898081806427
:10085000808381E090E0DF91CF911F910F91FF9015
:10086000EF9008951F920F920FB60F9211242F93BD
:100870008F939F93EF93FF93E0912E03F0912F03BB
:100880008081E0913403F091350382FD12C09081A4
:10089000809137038F5F8F7320913803821751F057
:1008A000E0913703F0E0E25EFC4F958F80933703D1
:1008B00001C08081FF91EF919F918F912F910F90B7
:1008C0000FBE0F901F9018951F920F920FB60F92A8
:1008D00011242F933F934F935F936F937F938F9345
:1008E0009F93AF93BF93EF93FF938EE193E00E94AA
:1008F000A803FF91EF91BF91AF919F918F917F914D
:100900006F915F914F913F912F910F900FBE0F907C
:100910001F9018958EE193E00E946C0321E0892BD3
:1009200009F420E0822F0895EEE1F3E013821282B1
:1009300088EE93E0A0E0B0E084839583A683B7833C
:100940008AE091E09183808385EC90E095878487AD
:1009500084EC90E09787868780EC90E0918B808B89
:1009600081EC90E0938B828B82EC90E0958B848B72
:1009700086EC90E0978B868B118E128E138E148EE0
:1009800008958F929F92AF92BF92CF92DF92EF9293
:10099000FF920F931F93CF93DF937C018B016C0128
:1009A00082E0C80ED11C4701E5E08E0E911CC0E02C
:1009B000D0E0F60161916F014AE050E0C8010E9469
:1009C000C8055C016EE2C8010E945E058A0D9B1D90
:1009D000C80FD91FC814D90461F74AE050E0F701E5
:1009E0006581C8010E94C8058C0F9D1FDF91CF91C2
:1009F0001F910F91FF90EF90DF90CF90BF90AF903D
:100A00009F908F900895EBEBF3E08AE191E0918362
:100A100080831282138214821582089508950E94A1
:100A200006070E940E050E94A302CAE9D3E00E94B5
:100A3000DB022097E1F30E949A03F9CFCF92DF9275
:100A4000EF92FF920F931F93CF93DF936C017A0184
:100A50008B01C0E0D0E0CE15DF0589F0D8016D91A3
:100A60008D01D601ED91FC910190F081E02DC60140
:100A70000995892B11F47E0102C02196ECCFC701A4
:100A8000DF91CF911F910F91FF90EF90DF90CF906A
:100A900008956115710579F0FB0101900020E9F7D7
:100AA0003197AF01461B570BDC01ED91FC910280A1
:100AB000F381E02D099480E090E00895DC01ED9150
:100AC000FC910190F081E02D09948F929F92AF925A
:100AD000BF92CF92DF92EF92FF920F931F93CF932B
:100AE000DF93CDB7DEB7A1970FB6F894DEBF0FBE88
:100AF000CDBF6C01142FE52FCB01022F19A222309C
:100B000008F40AE07E0121E2E20EF11C802E912C15
:100B1000A12CB12C612F7E2FA50194010E94E0072A
:100B2000029F1019112481E0E81AF1081A3010F41C
:100B3000105D01C0195CF7011083122FE32FCA0169
:100B4000232B242B252B31F7B701C6010E94490521
:100B5000A1960FB6F894DEBF0FBECDBFDF91CF9147
:100B60001F910F91FF90EF90DF90CF90BF90AF90CB
:100B70009F908F9008952115310541F4DC01ED918E
:100B8000FC910190F081E02D642F09940C9465058F
:100B90009A01462F50E060E070E00C94BB05813074
:100BA00039F018F0823051F0089510926E000895D7
:100BB00080916F008D7F80936F0008958091700009
:100BC0008D7F8093700081E08093B0008091B100B0
:100BD000887F84608093B1001092B3000895CF9312
:100BE000C82F809100018C1307C0E8E6F0E0E49183
:100BF0008FEF8093000101C0EFEF8E2F0E94CF0591
:100C000060E08C2FCF910C9487071F920F920FB644
:100C10000F9211242F933F934F935F936F937F9382
:100C20008F939F93AF93BF93EF93FF938091C403F0
:100C30009091C503A091C603B091C703892B8A2B5D
:100C40008B2B51F18091C103E091C203F091C3035A
:100C50009081892780838091C4039091C503A091DE
:100C6000C603B091C703181619061A061B06C4F46A
:100C70008091C4039091C503A091C603B091C703AE
:100C80000197A109B1098093C4039093C503A09370
:100C9000C603B093C70304C0809100010E94EF0512
:100CA000FF91EF91BF91AF919F918F917F916F9144
:100CB0005F914F913F912F910F900FBE0F901F901A
:100CC000189508951F920F920FB60F9211242F932B
:100CD0003F934F935F936F937F938F939F93AF93C4
:100CE000BF93EF93FF93E0910101F0910201099509
:100CF000FF91EF91BF91AF919F918F917F916F91F4
:100D00005F914F913F912F910F900FBE0F901F90C9
:100D100018951F920F920FB60F9211242F933F93A5
:100D20004F935F936F937F938F939F93AF93BF93F3
:100D3000EF93FF93E0910301F09104010995FF9176
:100D4000EF91BF91AF919F918F917F916F915F9143
:100D50004F913F912F910F900FBE0F901F901895BC
:100D60001F920F920FB60F9211242F933F938F93E0
:100D70009F93AF93BF938091C9039091CA03A091B1
:100D8000CB03B091CC033091C80323E0230F2D3760
:100D900020F40196A11DB11D05C026E8230F02967F
:100DA000A11DB11D2093C8038093C9039093CA036A
:100DB000A093CB03B093CC038091CD039091CE034D
:100DC000A091CF03B091D0030196A11DB11D8093D6
:100DD000CD039093CE03A093CF03B093D003BF91E4
:100DE000AF919F918F913F912F910F900FBE0F90D8
:100DF0001F9018952FB7F8946091C9037091CA039A
:100E00008091CB039091CC032FBF0895789484B543
:100E1000826084BD84B5816084BD85B5826085BDF6
:100E200085B5816085BDEEE6F0E0808181608083DC
:100E3000E1E8F0E0108280818260808380818160BF
:100E40008083E0E8F0E0808181608083E1EBF0E086
:100E5000808184608083E0EBF0E08081816080832A
:100E6000EAE7F0E080818460808380818260808313
:100E70008081816080838081806880831092C1003E
:100E800008958E3008F08E5087702091050190E40F
:100E9000299F90011124822B80937C0080917A00FD
:100EA000806480937A0080917A0086FDFCCF8091E7
:100EB00078002091790090E0922B0895833081F0A2
:100EC00028F4813099F08230A1F008958730A9F09C
:100ED0008830B9F08430D1F4809180008F7D03C0D8
:100EE000809180008F7780938000089584B58F77FC
:100EF00002C084B58F7D84BD08958091B0008F7746
:100F000003C08091B0008F7D8093B00008951F933F
:100F1000CF93DF93282F30E0F901E759FF4F8491F9
:100F2000F901E358FF4FD491F901EF56FF4FC491F7
:100F3000CC23C9F0162F81110E945E07EC2FF0E040
:100F4000EE0FFF1FE155FF4FA591B4918FB7F894B5
:100F5000111105C09C91ED2FE095E92302C0EC91A1
:100F6000ED2BEC938FBFDF91CF911F910895CF931D
:100F7000DF93282F30E0F901E759FF4F8491F90101
:100F8000E358FF4FD491F901EF56FF4FC491CC23A2
:100F900091F081110E945E07EC2FF0E0EE0FFF1F31
:100FA000EB55FF4FA591B491EC91ED2381E090E0DA
:100FB00021F480E002C080E090E0DF91CF910895BD
:100FC000A1E21A2EAA1BBB1BFD010DC0AA1FBB1F4D
:100FD000EE1FFF1FA217B307E407F50720F0A21BBF
:100FE000B30BE40BF50B661F771F881F991F1A942C
:100FF00069F760957095809590959B01AC01BD0156
:10100000CF010895EE0FFF1F0590F491E02D099494
:10101000F999FECF92BD81BDF89A992780B50895C0
:10102000262FF999FECF1FBA92BD81BD20BD0FB604
:10103000F894FA9AF99A0FBE01960895F894FFCFA2
:10104000FF610661060100000000EB031E056C0352
:0C10500086037803C90300000000C104FF
:00000001FF
